:08000000803102288731FA2F3C
:100C7600400194017E01D901DB01DA0140019901AD
:100C860092107E01C310C510C410400197101510B4
:100C96007E0164106610651040011A1095107E01E1
:100CA600E410E610E51040019A10013092007E0132
:100CB600C3010130C40040011A10383099009A145B
:100CC600A630890B642E003240019A10A630890B9B
:100CD6006A2E00323830400199009A14A630890BEA
:100CE600722E003240019A10A630890B782E0032FF
:100CF6003830400199009A14A630890B802E0032B4
:100D060040019A10A630890B862E00322030400111
:100D160099009A14A630890B8E2E003240019A1043
:100D2600A630890B942E00322030400199009A1487
:100D3600A630890B9C2E003240019A10A630890BF2
:100D4600A22E00328030400199009A14A630890BF9
:100D5600AA2E003240019A10A630890BB02E00321E
:100D6600400199019A14A630890BB72E0032400132
:100D76009A10A630890BBD2E003220304001990012
:100D86009A14A630890BC52E003240019A10A6305F
:100D9600890BCB2E0032400199019A14A630890B9B
:100DA600D22E003240019A10A630890BD82E00327E
:100DB600C030400199009A14A630890BE02E00320B
:100DC60040019A10A630890BE62E003240019901A7
:100DD6009A14A630890BED2E003240019A10A630E7
:100DE600890BF32E00321030400199009A14A63078
:100DF600890BFB2E003240019A10A630890B012F79
:100E060000328030400199009A14A630890B092FD0
:100E1600003240019A10A630890B0F2F0032400194
:100E260099019A14A630890B162F003240019A10A8
:100E3600A630890B1C2F003240011A146D30990020
:100E46009A14A630890B252F003240019A10A6303D
:100E5600890B2B2F0032D030400199009A14A6300E
:100E6600890B332F003240019A10A630890B392F97
:100E760000326130400199009A14A630890B412F47
:100E8600003240019A10A630890B472F00321030ED
:100E9600400199009A14A630890B4F2F0032400169
:100EA6009A10A630890B552F0032693040019900FF
:100EB6009A14A630890B5D2F003240019A10A63095
:100EC600890B632F00329030400199009A14A630A6
:100ED600890B6B2F003240019A10A630890B712FB7
:100EE60000326D30400199009A14A630890B792F93
:100EF600003240019A10A630890B7F2F0032D03085
:100F0600400199009A14A630890B872F00324001C0
:100F16009A10A630890B8D2F00327530400199004A
:100F26009A14A630890B952F003240019A10A630EC
:100F3600890B9B2F00325030400199009A14A6303D
:100F4600890BA32F003240019A10A630890BA92FD6
:100F560000326E30400199009A14A630890BB12FE9
:100F6600003240019A10A630890BB72F0032E030CC
:100F7600400199009A14A630890BBF2F0032400118
:100F86009A10A630890BC52F0032613040019900B6
:100F96009A14A630890BCD2F003240019A10A63044
:100FA600890BD32F00321030400199009A14A630D5
:100FB600890BDB2F003240019A10A630890BE12FF6
:100FC600003240010D18E82FE92FE42F9714023064
:100FD600F5004530F400AA30890BEF2FF40BEF2F04
:100FE600F50BEF2F40019710E42F80310228F60110
:0A0FF600F701F801400186313B2E9F
:020000040001F9
:0A000E00EC3FFF3F9F3FFF3FFF3F25
:00000001FF
