:0400000080312628FD
:100008007E1480314E010C1C0A280B28242803106A
:100018004001971D0314031812281528400197154D
:100028001728400197110130D5000030D600623002
:10003800F0006630890B1E28F00B1E284E010C10AC
:100048007E10090080312828FC014001CF01D00131
:10005800D101D201D301D401D501D6017E104001CE
:1000680082318D2A400129088039AE002E08B3005C
:100078002935AE002E08B900A81F43284428452872
:1000880039143908031949284A285928390A031DF7
:100098004E284F2857280030A9000030A80000300B
:1000A800A7000030A600A81761280030A90000307A
:1000B800A8000030A7000030A6002D088039AE0047
:1000C8002E08B3062D35AE002E08B800AC1F6D28DB
:1000D8006E286F2838143808031973287428832861
:1000E800380A031D7828792881280030AD000030AF
:1000F800AC000030AB000030AA00AC178B280030F1
:10010800AD000030AC000030AB000030AA00380869
:1001180003198F28902895283908031D94289528B5
:100128009E280030A9000030A8000030A700003049
:10013800A6008C2A2608AE002E08F1002C0887316C
:100148006F27803172084001BF007108BE003E0869
:10015800AE00AF01B001B1013108B7003008B600F8
:100168002F08B5002E08B4003F08AE00AF01B0015B
:10017800B1013108BD003008BC002F08BB002E08B3
:10018800BA002708AE002E08F1002B0887316F2728
:10019800803172084001BF007108BE003E08AE0001
:1001A800AF01B001B1012E08B4072F08B53D3008E2
:1001B800B63D3108B73D3F08AE00AF01B001B1010F
:1001C8002E08BA072F08BB3D3008BC3D3108BD3D9D
:1001D8002808AE002E08F1002A0887316F278031E1
:1001E80072084001BF007108BE003E08AE00AF01B2
:1001F800B001B1012E08B4072F08B53D3008B63D4F
:100208003108B73D3F08AE00AF01B001B1012E087B
:10021800BA072F08BB3D3008BC3D3108BD3D08304A
:10022800B435B50DB60DB70D890B14292708AE00E6
:100238002E08F1002A0887316F27803172084001A3
:10024800BF007108BE003E08B4073F08B53D003046
:10025800B63DB73D2608AE002E08F1002B088731C1
:100268006F27803172084001BF007108BE003E0848
:10027800B4073F08B53D0030B63DB73D0830B4354A
:10028800B50DB60DB70D890B43292608AE002E080B
:10029800F1002A0887316F27803172084001BF00BA
:1002A8007108BE003E08B4073F08B53D0030B63DB2
:1002B800B73D2708AE002E08F1002C0887316F27BC
:1002C800803172084001BF007108BE003E08BA07BD
:1002D8003F08BB3D0030BC3DBD3D2808AE002E08A0
:1002E800F1002B0887316F27803172084001BF0069
:1002F8007108BE003E08BA073F08BB3D0030BC3D50
:10030800BD3D2808AE002E08F1002C0887316F2764
:10031800803172084001BF007108BE003E08AE007F
:100328003F08AF00B001B1010830AE35AF0DB00DD8
:10033800B10D890B99292E08BA072F08BB3D300843
:10034800BC3D3108BD3D3408AE003508AF00360865
:10035800B0003708B1001830B136B00CAF0CAE0C95
:10036800890BB0292E08BA072F08BB3D3008BC3DC1
:100378003108BD3D0830B435B50DB60DB70D890B44
:10038800BF2939083807AE00AF01AF0D2E08823EED
:10039800BE00FF302F3DBF00E8290130BA35BB0D44
:1003A800BC0DBD0D890BD229B71FDB29DC29DD293E
:1003B8003A140130B435B50DB60DB70D890BDE29E9
:1003C800FF30BE07FF30BF3DBC1FEB29EC29D12908
:1003D800B801B71FF029F1290D2AFF303405AE0006
:1003E800FF303505AF00FF303605B0007F303705E8
:1003F800B100310830042F042E040319042A052AF9
:10040800082AB801B80A0D2A3A1C0B2A0C2A0D2A08
:10041800052A38080319112A122A3A2A0130BA077C
:100428000030BB3D0030BC3D0030BD3D3D1C1D2AA9
:100438001E2A3A2A3A08AE003B08AF003C08B00032
:100448003D08B1000130B200B137B00CAF0CAE0CB2
:10045800B20B282A3108BD003008BC002F08BB00A9
:100468002E08BA000130BE070030BF3D3F08803A71
:10047800AE0080302E02031D432AFF303E02031CCB
:10048800462A472A512A7F304001BD008030BC00EF
:100498000030BB000030BA00802A40013F08803A93
:1004A800AE0080302E02031D5B2A01303E02031885
:1004B8005E2A5F2A6A2A00304001BD000030BC0075
:1004C8000030BB000030BA00B301802A40013E086A
:1004D800AE002E08B900FF30BA05FF30BB057F30EB
:1004E800BC050030BD05391C7A2A7B2A7C2ABC173A
:1004F8003936AE002E08BD003308AE002E08BD0404
:100508003D08A9003C08A8003B08A7003A08A60037
:1005180008008F31F3278231873112278231F401A5
:10052800F40A2330F5009030F60001308731922725
:1005380082314001A001A00A5208A2005108A1007E
:100548000230A3000030A400023084313624823106
:100558002E308731C927823104304001C90049084B
:10056800A0005408A2005308A1000230A3000030E4
:10057800A400023084313624823121304001C90080
:100588007630890BC52AC90BC52A00008B170B10BA
:100598004E010C10161401308731EB278231720896
:1005A8004001CC007108CB004B08F1004C08F20068
:1005B800F301F40100308531472582317408400188
:1005C800AD007308AC007208AB007108AA00403097
:1005D800A9004E30A8001430A7007B30A600803157
:1005E8003620823140012908C3002808C2002708A4
:1005F800C1002608C0008531F42582314001410838
:10060800CE004008CD000A30C9004908A0004E08B5
:10061800A2004D08A1000230A3000030A400013060
:10062800843136248231DF308731C9278231433023
:100638008731C92782310A304001C9004908F400CE
:100648000930F5009030F600023087319227823168
:10065800FA300032890B2D2B003040014E021A303F
:1006680003194D02031C392B3A2B472B0A30C900BA
:100678004908F4001130F5009030F6000230873157
:1006880092278231952B00304E02163003194D0205
:10069800031C4F2B502B5D2B0A30C9004908F4006E
:1006A8002830F5009030F6000230873192278231E9
:1006B800952B00304E02143003194D02031C652B94
:1006C800662B732B0A30C9004908F4001930F5006D
:1006D8009030F6000230873192278231952B003016
:1006E8004E02113003194D02031C7B2B7C2B892BE6
:1006F8000A30C9004908F4001E30F5009030F600B1
:100708000230873192278231952B0A30C900490877
:10071800F4000030F5009030F6000230873192275F
:10072800823140015508560403199B2B9C2BCD2B75
:100738005408803AC90080304902031DA52B3B307C
:1007480053020318A82BA92BAF2B01304001D30764
:100758000030D43DD32B4001D301D4015208803A54
:10076800C90080304902031DBB2B3B3051020318DE
:10077800BE2BBF2BC52B01304001D1070030D23D25
:10078800D32B4001D101D2010130CF070030D03D39
:10079800D32BCF01D001D101D201D301D401A001C3
:1007A800A00A5008A2004F08A1000230A3000030A0
:1007B800A40002308431362482312E308731C92793
:1007C800823104304001C9004908A0005208A20043
:1007D8005108A1000230A3000030A4000230843187
:1007E800362482312E308731C927823107304001C3
:1007F800C9004908A0005408A2005308A10002300B
:10080800A3000030A4000230843136248231023043
:100818004001CA004530C900A930890B112CC90B09
:10082800112CCA0B112C003240010D1A1C2C1D2C46
:10083800CF2A0310971E03140318232C262C4001DB
:100848009716282C40019712D501D6016230400135
:10085800C9006530890B2E2CC90B2E2C0032CF2AEB
:10086800803126284001AF00B2012F0803193D2C22
:100878003E2C432C2008031D422C432C4A2CF20109
:10088800F20A0130873143278431522C2008F900BD
:100898007908F2002F088731432784310530400159
:1008A800230624040319592C5A2C5B2C742C103061
:1008B800F1002730F2002208F4002108F300863105
:1008C800692684317108303E4001AD000030723D28
:1008D800AE002D088731C92784314001B201B20A20
:1008E80004302306240403197A2C7B2C802C320331
:1008F800031D7F2C802CA92CE830F1000330F20076
:100908002208F4002108F300863169268431720830
:100918004001B1007108B0000A30F1000030F20067
:100928003108F4003008F3008631DE26843171087E
:10093800303E4001AB000030723DAC002B088731DF
:10094800C92784314001B201B20A033023062404C6
:100958000319AF2CB02CB52C3203031DB42CB52CC5
:10096800DE2C6430F1000030F2002208F400210887
:10097800F30086316926843172084001B10071089C
:10098800B0000A30F1000030F2003108F4003008FD
:10099800F3008631DE2684317108303E4001A9001B
:1009A8000030723DAA0029088731C92784314001E7
:1009B800B201B20A0230230624040319E42CE52C00
:1009C800EA2C3203031DE92CEA2C132D0A30F1001E
:1009D8000030F2002208F4002108F300863169266D
:1009E800843172084001B1007108B0000A30F1008A
:1009F8000030F2003108F4003008F3008631DE26BA
:100A080084317108303E4001A7000030723DA800D3
:100A180027088731C92784314001B201B20A23036C
:100A280024040319182D192D1E2D3203031D1D2D05
:100A38001E2D342D0A30F1000030F2002208F40097
:100A48002108F3008631DE2684317108303E4001EA
:100A5800A5000030723DA60025088731C9278431DA
:100A680040012408803AF90080307902031D3E2DA8
:100A780006302302031C412D422D462D6530873157
:100A8800C927843108004001A000200803194D2D12
:100A98004E2D622DF41F512D522D622D7109A20089
:100AA8007209A3007309A4007409A500A20A031916
:100AB800A30A0319A40A0319A50A6A2D7408A50034
:100AC8007308A4007208A3007108A20074087304D4
:100AD80072047104031D712D722D7B2D0030F400FA
:100AE8000030F3000030F2000030F100F32D9630B2
:100AF800F5007508A1008B2D0130F5007508A107D8
:100B08000130A536A40CA30CA20C890B852DFE3050
:100B18002505031D902D912D802DA52D0130F50063
:100B28007508A1070130A2070030A33D0030A43D9D
:100B38000030A53D0130A536A40CA30CA20C890BEE
:100B48009F2DFF302505031DAA2DAB2D922DB52D08
:100B58000130A1020130A235A30DA40DA50D890B0A
:100B6800AF2DA41BB82DB92DBF2D023021020318BB
:100B7800BE2DBF2DAC2D2118C22DC32DCB2DFF307E
:100B8800A205FF30A3057F30A405FF30A50503109B
:100B9800A10C2108F500F601F701F8011830F53528
:100BA800F60DF70DF80D890BD32D7508A2047608FC
:100BB800A3047708A4047808A50420080319E52DE0
:100BC800E62DEB2DF41FE92DEA2DEB2DA5172508B1
:100BD800F4002408F3002308F2002208F1000800BA
:100BE80003104001420D430DC4004408FB007B087C
:100BF800031DFF2D002E092E0030C3000030C20057
:100C08000030C1000030C000682E4008C400410810
:100C1800C5004208C6004308C7001F30C736C60CC7
:100C2800C50CC40C890B122E4408C8004808FA00E9
:100C3800C217FF30C005FF30C105FF30C2050030C4
:100C4800C3059630FB02FB1F2A2E2B2E432E7B0852
:100C5800803A973E0318312E322E332E002E013063
:100C6800C336C20CC10CC00C890B342E0130C40031
:100C78004408FB07031D412E422E332E582E2030E8
:100C88007B02031C482E492E532E002E0130C035FE
:100C9800C10DC20DC30D890B4B2E0130FB027B0821
:100CA800031D572E582E4A2E7A0803195C2E5D2EE6
:100CB800682EC009C109C209C309C00A0319C10ABB
:100CC8000319C20A0319C30A0800F601F7017108DB
:100CD80072040319702E712EA02EF801F80A7D2EC9
:100CE8000130F135F20D890B752E0130F5007508CC
:100CF800F807F21F802E812E742E0130F635F70D7D
:100D0800890B822E72087402031D8C2E71087302DF
:100D1800031C8F2E902E952E7108F3027208F43B57
:100D280076140130F236F10C890B962E0130F80258
:100D3800031D9F2EA02E812E7708F2007608F10061
:100D4800080040019A019901960197019801043021
:100D58009500FF309100D7309200FF309300940146
:100D68007E01D901FF30CE000230C3000430E40018
:100D7800FF30B800DA01E5011330C400B901CF0132
:100D8800E601BA01C501D001DB01FF30BB00FF302D
:100D9800C600FF30D100FF30DC000730E700FF302D
:100DA800BC00FF30C700FF30D200FF30DD000F303D
:100DB800E8000800710872040319E32EE42E0D2FD1
:100DC800F601F60AF02E0130F135F20D890BE82E06
:100DD8000130F5007508F607F21FF32EF42EE72E02
:100DE80072087402031DFA2E71087302031CFD2E8B
:100DF800FE2E022F7108F3027208F43B0130F2361E
:100E0800F10C890B032F0130F602031D0C2F0D2F57
:100E1800F42E7408F2007308F100080038308731A6
:100E2800DA278731FA300032890B172F02308731E1
:100E3800DA278731FA300032890B1F2F01308731CA
:100E4800DA278731FA300032890B272F0C308731A7
:100E5800DA278731FA300032890B2F2F0630873195
:100E6800DA278731FA300032890B372F8030873103
:100E7800DA278731FA300032890B3F2F0800F30058
:100E880073080319482F492F5A2F03307302031888
:100E98004E2F4F2F5A2F72080319532F542F5A2FA2
:100EA80011307202031C592F5A2F5E2FF301F30AD7
:100EB800F201F20A7303031D622F632F692F720870
:100EC8007F3E8731DA2787316E2F7208BF3E873120
:100ED800DA2787310800F900F501F6017108F300F7
:100EE800F4017308F7007408F800791C7C2F7D2F33
:100EF800812F7708F5077808F63D0130F735F80DAA
:100F0800890B822F0310F90C7908031D8C2F8D2F64
:100F1800792F7608F2007508F1000800F8007408C7
:100F2800F7007708F2007808873143278731A82F20
:100F3800750884007608850000088731C92787313D
:100F48000130F5070030F63D750884007608850005
:100F58001200031DB02FB12F9C2F080042018E01F3
:100F68008F0190019101920193018D0141019E0130
:100F78009B019C0194019501960197019A019901A1
:100F88009801843093009D010800F10040011A1473
:100F9800710899009A14A630890BD02F00324001AD
:100FA8009A10A630890BD62F00320800F1004001B4
:100FB8001A10710899009A14A630890BE12F003293
:100FC80040019A10A630890BE72F00320800F30081
:100FD800730841019E009317131313141318F52F68
:0E0FE800F62FF22F0D08F2000C08F1000800A1
:101FC4004F0196019701980199019A019B0108001C
:101FD400623051018D008F01910102309300920112
:101FE40008008F31E2278F318631A5268F318F315A
:101FF400EA278F318731B2278F3108004634723493
:10200400653465347A3469346E346734003420348A
:102014002034203420342034203420340034543408
:102024006F346F34203468346F34743400344D3476
:1020340069346C346434003443346F346C34643441
:1020440000344D34613478346934003457346134A5
:0620540072346D3400340B
:020000040001F9
:0A000E00EC3FFF3F9F3FFF3FFF3F25
:00000001FF
