:0400000080312828FB
:100008007E1480314E01161E0A280B2813280C1E58
:100018000E280F2813288A31F522803126280B1F35
:10002800162817282628991E1A281B2826288F1EC6
:100038001E281F282628410145088A0044080A006E
:10004800803126287E10090080312A285E308400FD
:1000580097308500DC308600003087000D309631FF
:10006800F4268031B7308400973085005C308600F4
:100078000130870010309631F4268031F001F1010B
:10008800F201F301F401F501A0308400003085008D
:100098001E309631EE2680312030840001308500F4
:1000A8003C309631EE2680317E1040018E31912E03
:1000B8004001680880394101CE004E08D600400151
:1000C80068354101CE004E08D8004001E71F6D2871
:1000D8006E287028410158144101580803197528E1
:1000E80076288828580A031D7A287B288428003017
:1000F8004001E8000030E7000030E6000030E5008D
:100108004001E717E801912800304001E80000307D
:10011800E7000030E6000030E5006C088039410156
:10012800CE004E08D7005708560603199C289D286C
:100138009E28561740016C354101CE004E08D70065
:100148004001EB1FA828A928AB28410157144101F9
:1001580057080319B028B128C328570A031DB52822
:10016800B628BF2800304001EC000030EB0000301A
:10017800EA000030E9004001EB17EC01CC28003020
:100188004001EC000030EB000030EA000030E900EC
:100198004101580857020318D228D3283029561F7E
:1001A800D628D728DB288030CE004E08D606580837
:1001B800CE004E08D9005708CE004E08D80059087E
:1001C800CE004E08D700400165084101CE004E0818
:1001D800D900400169084101CE004E084001E50000
:1001E80041015908CE004E084001E9006608410166
:1001F800CE004E08D90040016A084101CE004E08E1
:100208004001E60041015908CE004E084001EA00CD
:1002180067084101CE004E08D90040016B08410132
:10022800CE004E084001E70041015908CE004E08B3
:100238004001EB0068084101CE004E08D90040019A
:100248006C084101CE004E084001E8004101590800
:10025800CE004E084001EC004101D9015708CE00FC
:10026800CF014F08D10058084E02D000031CD1031B
:100278005108803AD20080305202031D45291A30B5
:100288005002031C48294929892940016808670444
:1002980066046504031D512953290130542900308F
:1002A8004101CE004E08D90000304001E80000307E
:1002B800E7000030E6000030E50041015708CE00B5
:1002C8004E08D8009029591C6A296B29712959367A
:1002D8000138CE004E08D90073290310D90C40010B
:1002E800651C772978297A294101D91701304101FC
:1002F800CE004001E837E70CE60CE50C4101CE0BD7
:100308007D290130CE004E08D80741015708580210
:10031800031C8F2990296729561B93299429D429CE
:100328005808031D98299929A32900304001E8009D
:100338000030E7000030E6000030E5000B2B4001FC
:100348006908E5076A08E63D6B08E73D6C08E83D83
:10035800681CAF29B0297E2A4101591CB429B52946
:10036800BB2959360138CE004E08D900BD290310E3
:10037800D90C4001651CC129C229C4294101D917DA
:1003880001304101CE004001E837E70CE60CE50CEE
:100398004101CE0BC7290130CE004E08D8077E2A6E
:1003A80040016808803A4101CE0040016C08803A5B
:1003B80041014E024001031DEB296B086702031D32
:1003C800EB296A086602031DEB2969086502031810
:1003D800EE29EF29392AFF304101CE00FF30CF0046
:1003E800FF30D000FF30D1004001650869024101AB
:1003F800D200400166086A3B4101D300400167080A
:100408006B3B4101D400400168086C3B4101D500B9
:100418005208CE075308CF3D5408D03D5508D13D6A
:1004280051084001E800410150084001E70041013E
:100438004F084001E60041014E084001E5008030C8
:100448004101CE004E08D606D909D90A5908031D1C
:100458002E2A2F2A412A01304001E5070030E63DC7
:100468000030E73D0030E83D412A6908E5026A08A6
:10047800E63B6B08E73B6C08E83B4001680867040B
:1004880066046504031D492A4A2A792A4101590844
:10049800031D4F2A502A792A00304001E800003015
:1004A800E7000030E6000030E5000B2B0130E535B1
:1004B800E60DE70DE80D890B5B2A4101D91F652A76
:1004C800662A682A400165144101591C6C2A6D2A64
:1004D800702A0314D90D722A0310D90D580803196C
:1004E800762A772A792A0130D8024001E71F7D2A27
:1004F8007E2A5A2A4101D701D91F832A842A942A9D
:1005080059087F390319892A8A2A8E2A4101D70175
:10051800D70A942A4001651C922A932A942A8A2A87
:10052800410157080319992A9A2AD72A013040010C
:10053800E5070030E63D0030E73D0030E83D681C47
:10054800A62AA72AD72A65084101CE0040016608D5
:100558004101CF00400167084101D000400168080F
:100568004101D1000130D200D137D00CCF0CCE0CD4
:10057800D20BB82A51084001E80041015008400157
:10058800E70041014F084001E60041014E084001E3
:10059800E5004101580A0319D22AD32AD72A013083
:1005A800CE004E08D8074101580A0319DC2ADD2A73
:1005B800E22A5808031DE12AE22AF22A0030400103
:1005C800E8000030E7000030E6000030E5004101B7
:1005D8005808031DF02AF12AF22AD601581CF52AD8
:1005E800F62AF92A4001E717FE2A7F30CE004E0886
:1005F8004001E70541015836CE004E084001E800A9
:100608004101D61F082B092B0B2B4001E8170800C6
:10061800400134088039B9003908BE003435B900C2
:100628003908C400B31F192B1A2B1B2B4414440878
:1006380003191F2B202B2F2B440A031D242B252B9A
:100648002D2B0030B4000030B3000030B200003071
:10065800B100B317372B0030B4000030B3000030BE
:10066800B2000030B10038088039B9003908BE0638
:100678003835B9003908BF00B71F432B442B452B29
:100688003F143F080319492B4A2B592B3F0A031DD6
:100698004E2B4F2B572B0030B8000030B7000030DE
:1006A800B6000030B500B717612B0030B800003035
:1006B800B7000030B6000030B5003F080319652BBD
:1006C800662B6B2B4408031D6A2B6B2B742B003095
:1006D800B4000030B3000030B2000030B100622D29
:1006E8003108B9003908A3003708883181208331DF
:1006F80040012408CA002308C9004908B900BA0102
:10070800BB01BC013C08C3003B08C2003A08C10059
:100718003908C0004A08B900BA01BB01BC013C084D
:10072800C8003B08C7003A08C6003908C5003208A7
:10073800B9003908A3003608883181208331400187
:100748002408CA002308C9004908B900BA01BB0136
:10075800BC013908C0073A08C13D3B08C23D3C0806
:10076800C33D4A08B900BA01BB01BC013908C50735
:100778003A08C63D3B08C73D3C08C83D3308B900A8
:100788003908A300350888318120833140012408C5
:10079800CA002308C9004908B900BA01BB01BC0155
:1007A8003908C0073A08C13D3B08C23D3C08C33D73
:1007B8004A08B900BA01BB01BC013908C5073A08A3
:1007C800C63D3B08C73D3C08C83D0830C035C10D93
:1007D800C20DC30D890BEA2B3208B9003908A300F2
:1007E800350888318120833140012408CA00230854
:1007F800C9004908C0074A08C13D0030C23DC33D91
:100808003108B9003908A3003608883181208331BE
:1008180040012408CA002308C9004908C0074A083B
:10082800C13D0030C23DC33D0830C035C10DC20DC9
:10083800C30D890B192C3108B9003908A3003508F4
:1008480088318120833140012408CA002308C90067
:100858004908C0074A08C13D0030C23DC33D3208BF
:10086800B9003908A3003708883181208331400155
:100878002408CA002308C9004908C5074A08C63D14
:100888000030C73DC83D3308B9003908A300360811
:1008980088318120833140012408CA002308C90017
:1008A8004908C5074A08C63D0030C73DC83D33085A
:1008B800B9003908A3003708883181208331400105
:1008C8002408CA002308C9004908B9004A08BA0020
:1008D800BB01BC010830B935BA0DBB0DBC0D890B85
:1008E8006F2C3908C5073A08C63D3B08C73D3C0888
:1008F800C83D4008B9004108BA004208BB00430897
:10090800BC001830BC36BB0CBA0CB90C890B862C51
:100918003908C5073A08C63D3B08C73D3C08C83DED
:100928000830C035C10DC20DC30D890B952C440884
:100938003F07B900BA01BA0D3908823EC900FF3035
:100948003A3DCA00BE2C0130C535C60DC70DC80DCD
:10095800890BA82CC31FB12CB22CB32C4514013021
:10096800C035C10DC20DC30D890BB42CFF30C907AA
:10097800FF30CA3DC71FC12CC22CA72CBF01C31F03
:10098800C62CC72CE32CFF304005B900FF304105C9
:10099800BA00FF304205BB007F304305BC003C086D
:1009A8003B043A0439040319DA2CDB2CDE2CBF0192
:1009B800BF0AE32C451CE12CE22CE32CDB2C3F087E
:1009C8000319E72CE82C102D0130C5070030C63D6F
:1009D8000030C73D0030C83D481CF32CF42C102DC6
:1009E8004508B9004608BA004708BB004808BC00DB
:1009F8000130BD00BC37BB0CBA0CB90CBD0BFE2CCA
:100A08003C08C8003B08C7003A08C6003908C500BA
:100A18000130C9070030CA3D4A08803AB900803021
:100A28003902031D192DFF304902031C1C2D1D2DF1
:100A3800272D7F304001C8008030C7000030C60035
:100A48000030C500562D40014A08803AB900803070
:100A58003902031D312D013049020318342D352D7B
:100A6800402D00304001C8000030C7000030C600EB
:100A78000030C500BE01562D40014908B9003908AB
:100A8800C400FF30C505FF30C6057F30C7050030FC
:100A9800C805441C502D512D522DC7174436B90096
:100AA8003908C8003E08B9003908C8044808B40025
:100AB8004708B3004608B2004508B10008004001E5
:100AC80052088039D3005308DC005235D30053084C
:100AD800E300D11F702D712D722D63146308031963
:100AE800762D772D872D630A031D7B2D7C2D842D74
:100AF8000030D2000030D1000030D0000030CF00EC
:100B0800D117D2018F2D0030D2000030D100003033
:100B1800D0000030CF004E088039D3005308DC06DF
:100B28004E35D3005308E400CD1F9B2D9C2D9D2DE1
:100B3800641464080319A12DA22DB22D640A031DA3
:100B4800A62DA72DAF2D0030CE000030CD000030EF
:100B5800CC000030CB00CD17CE01BA2D0030CE002E
:100B68000030CD000030CC000030CB004E084D04E2
:100B78004C044B04031DC12DC22DDB2D0030D200C7
:100B88000030D1000030D0000030CF008030D104D8
:100B98007F30D2045C08D3005308D2045208CE0038
:100BA8005108CD005008CC004F08CB00162F630821
:100BB800031DDF2DE02DE92D0030CE000030CD00E3
:100BC8000030CC000030CB00162F6308D300D401CE
:100BD8005408D60064085302D500031CD6035508F0
:100BE8007F3EDD000030563DDE005208DB00510834
:100BF800DA005008D9004F08D8000030D200003081
:100C0800D1000030D0000030CF000030E2000030CA
:100C1800E1000030E0000030DF00E401512E6408FC
:100C28000319172E182E322E0130D835D90DDA0DAA
:100C3800DB0D890B192E0130CF35D00DD10DD20D1A
:100C4800890B202EE21F292E2A2E2B2E4F1401301D
:100C5800DF35E00DE10DE20D890B2C2E4E085B020D
:100C6800031D402E4D085A02031D402E4C08590200
:100C7800031D402E4B085802031C432E442E4D2EB4
:100C880062174B08D8024C08D93B4D08DA3B4E088E
:100C9800DB3B0130D3005308E4071A306402031C1D
:100CA800562E572E132E5B085A045904580403195C
:100CB8005E2E5F2E782E5F14782E0130CF35D00D42
:100CC800D10DD20D890B622EE21F6B2E6C2E6D2E6C
:100CD8004F140130DF35E00DE10DE20D890B6E2E6A
:100CE800FF30DD07FF30DE3DD11F7B2E7C2E612ECD
:100CF800E401E21F802E812E9D2EFF305F05D30078
:100D0800FF306005D400FF306105D5007F306205F3
:100D1800D60056085504540453040319942E952EEE
:100D2800982EE401E40A9D2E4F1C9B2E9C2E9D2E8E
:100D3800952E64080319A12EA22ECA2E0130CF07C2
:100D48000030D03D0030D13D0030D23D521CAD2E98
:100D5800AE2ECA2E4F08D3005008D4005108D50033
:100D68005208D6000130D700D637D50CD40CD30C96
:100D7800D70BB82E5608D2005508D1005408D00019
:100D88005308CF000130DD070030DE3D5E08803AB1
:100D9800D30080305302031DD32EFF305D02031CA5
:100DA800D62ED72EE42EFF304001DD000030DE00C5
:100DB8000030D2000030D1000030D0000030CF0029
:100DC80040015E08803AD30080305302031DEE2EA6
:100DD80001305D020318F12EF22EFE2E4001DD01D6
:100DE800DE010030D2000030D1000030D0000030E9
:100DF800CF00DC0140015D08D3005308E300631C09
:100E0800062F072F092FD1170D2F7F30D300530836
:100E1800D1056336D3005308D2005C08D3005308C9
:100E2800D204D22D08004001AB002B0803191D2F56
:100E38001E2F322FA61F212F222F322F2309AD005C
:100E48002409AE002509AF002609B000AD0A031930
:100E5800AE0A0319AF0A0319B00A3A2F2608B000E0
:100E68002508AF002408AE002308AD002608250495
:100E780024042304031D412F422F4B2F0030A600CA
:100E88000030A5000030A4000030A300C32F963026
:100E9800A7002708AC005B2F0130A7002708AC0784
:100EA8000130B036AF0CAE0CAD0C890B552FFE30AF
:100EB8003005031D602F612F502F752F0130A700BB
:100EC8002708AC070130AD070030AE3D0030AF3D1C
:100ED8000030B03D0130B036AF0CAE0CAD0C890B14
:100EE8006F2FFF303005031D7A2F7B2F622F852F40
:100EF8000130AC020130AD35AE0DAF0DB00D890B30
:100F08007F2FAF1B882F892F8F2F02302C020318B9
:100F18008E2F8F2F7C2F2C18922F932F9B2FFF30E3
:100F2800AD05FF30AE057F30AF05FF30B0050310CB
:100F3800AC0C2C08A700A801A901AA011830A735F4
:100F4800A80DA90DAA0D890BA32F2708AD04280801
:100F5800AE042908AF042A08B0042B080319B52FDA
:100F6800B62FBB2FA61FB92FBA2FBB2FB01730082B
:100F7800A6002F08A5002E08A4002D08A30008002D
:100F88004001A801A601F82F8831CE208731400101
:100F9800A5002508A70027080319D32FD42FF82F59
:100FA8000A3027060319D92FDA2FEF2F1E3028020F
:100FB8000318DF2FE02FEF2F2708A50028083E3E53
:100FC800860001308700250881000130A50025082A
:100FD800A807A601F82FA601A60A28083D3E860004
:100FE800013087008101A8017308031DFC2FFD2F24
:100FF800C82F2608080008004F019601970198019C
:1010080099019A019B0108004001A50025084101AA
:101018009E00931713131314131813281428102859
:101028000D084001A40041010C084001A30008007C
:101038004001A60010102608A5000430A536890B2B
:10104800222825088A31B5228831400126088A31AC
:10105800B522883140011014080042018E018F0129
:1010680090019101920193018D0141019E019B0123
:101078009C0194019501960197019A0199019801A3
:10108800843093009D01080042011908F600720897
:10109800203E860001308700760881000130F60086
:1010A8007608F2071E307202031C5B285C285D2854
:1010B800F2010130F6007608F30708004001A801A4
:1010C800A90175282508280784002608293D8500D8
:1010D80000089631FA26883101304001A80700300F
:1010E800A93D2508280784002608293D8500120007
:1010F800031D7F288028662808004001AB00A7014F
:10110800A8012308A500A6012508A9002608AA0009
:101118002B1C8F28902894282908A7072A08A83D5F
:101128000130A935AA0D890B95280310AB0C2B08A3
:10113800031D9F28A0288C282808A4002708A3009E
:1011480008005330890BA62800000F304001A70083
:10115800270894050F128F120F138F1310100330E6
:101168008A31B522883103308A31B522883103307B
:101178008A31B522883102308A31B5228831283047
:1011880088311C2088310C3088311C20883140017E
:101198001014080073080319D228D328CE28710820
:1011A800A03E8600870101084001A3002308F00043
:1011B8007108203E8600013087000108A30023083B
:1011C800A4000130A3002308F1071E307102031C9C
:1011D800EE28EF28F028F1014E0199120130F302B0
:1011E80099164001240808004E0199123C3040012C
:1011F800A3000A30A40097311C2788310830420127
:101208009F0090309D0024309E0019309B009C0167
:10121800FF304001A3000730A40097310A27883126
:10122800E0304001A3001630A4009731132788311D
:10123800DC304001A3001630A40097310127883123
:10124800F001F201F101F3014E0199160800F501D0
:10125800400119109914191599150E1834293529B2
:101268003829F401F40A5F291914991019159915E8
:101278000E183F29402945290230F6007608F40067
:101288005F2919149914191199150E184C294D290B
:1012980052290330F6007608F4005F2919149914CE
:1012A800191599110E1859295A295F290430F60081
:1012B8007608F4005F290800F501F50A40011910C5
:1012C8009914191599158E186A296B296E29F40134
:1012D800F40A952919149910191599158E18752954
:1012E80076297B290230F6007608F400952919142E
:1012F8009914191199158E18822983298829033080
:10130800F6007608F40095291914991419159911FD
:101318008E188F29902995290430F6007608F40054
:10132800952908004001AA01AB01C0292A082B040D
:10133800031D9F29A029A529803088311C208931C7
:10134800B02910302A062B04031DAB29AC29B0297B
:10135800C03088311C208931400127082A078400C1
:1013680028082B3D850000089731D927893101309D
:101378004001AA070030AB3D27082A078400280847
:101388002B3D85001200031DCA29CB299A29080084
:101398000230F6007608F500400119109914191565
:1013A80099150E19D829D929DC29F401F40A032A38
:1013B80019149910191599150E19E329E429E92921
:1013C8000230F6007608F400032A1914991419114A
:1013D80099150E19F029F129F6290330F600760837
:1013E800F400032A19149914191599110E19FD29D5
:1013F800FE29032A0430F6007608F400032A0800C0
:101408000330F6007608F5004001191099141915F3
:1014180099158E19102A112A142AF401F40A3B2A64
:1014280019149910191599158E191B2A1C2A212A85
:101438000230F6007608F4003B2A191499141911A1
:1014480099158E19282A292A2E2A0330F60076089B
:10145800F4003B2A19149914191599118E19352A73
:10146800362A3B2A0430F6007608F4003B2A0800A6
:101478007208A03E86008701810142011D1D452A90
:10148800462A512A7208A03E86008701811441012C
:1014980043088A0042080A008A3142019D1C552AE5
:1014A800562A612A7208A03E86008701011541016B
:1014B80041088A0040080A008A317208A03E860066
:1014C800870101080319692A6A2A712A41013F081C
:1014D8008A003E080A008A31742A883148208A31F5
:1014E8000800F700400190147708F6000330F6363C
:1014F800890B7B2A7618812A842A40018F17862A2D
:1015080040018F137708F6000230F636890B892AD6
:1015180076188F2A922A40010F17942A40010F1338
:101528007708F6000130F636890B972A76189D2A37
:10153800A02A40018F16A22A40018F127718A52AE7
:10154800A82A40010F16AA2A40010F12A630890BBB
:10155800AB2A003240019010A630890BB12A003224
:1015680008004001A40090142408A3000330A33607
:10157800890BBB2A2318C12AC42A40018F17C62AFF
:1015880040018F132408A3000230A336890BC92A0F
:101598002318CF2AD22A40010F17D42A40010F134B
:1015A8002408A3000130A336890BD72A2318DD2A83
:1015B800E02A40018F16E22A40018F122418E52AFA
:1015C800E82A40010F16EA2A40010F12A630890BBB
:1015D800EB2A003240019010A630890BF12A003224
:1015E80008004001A001A1018B132130FA007630D8
:1015F800890BFC2AFA0BFC2A00327E01551C052BAC
:10160800062B092B97316B278A317E01D51C0D2BB0
:101618000E2B112B97317A278A317E01551D152BF8
:10162800162B192B973189278A317E01D51D1D2B41
:101638001E2B212B973198278A319631E4268A313F
:101648007508FA000130FA35FF3E031D272B7A355D
:101658007407FF3EFB007B084001A20022085C3EA5
:1016680086000130870001089731C7278A31400179
:1016780019109910191199118B17080040019A0136
:10168800990196019701980104309500FF30910067
:10169800F33092008F30930094017E01D901CE017E
:1016A800C230C3000430E400FF30B800DA01E501BD
:1016B8003130C400B9010F30CF00E601BA01C501CD
:1016C800D001DB01FF30BB00FF30C600FF30D10086
:1016D800FF30DC000730E700FF30BC00FF30C700F8
:1016E800FF30D200FF30DD000F30E8005510D51074
:1016F8005511D5115414D4145415D4155310D310AE
:101708005311D3112B304001A3000930A4009731A5
:101718002E278B3160304001A3000930A400973197
:1017280037278B31CC304001A3000930A400973112
:1017380040278B3104304001A3000A30A4009731C0
:1017480049278B314E01161617307D01CB0010301A
:101758007E01A6000800031040014D0D4E0DCF007C
:101768004F08D5005508031DBA2BBB2BC42B0030DE
:10177800CE000030CD000030CC000030CB00232C50
:101788004B08CF004C08D0004D08D1004E08D200BD
:101798001F30D236D10CD00CCF0C890BCD2B4F0873
:1017A800D3005308D400CD17FF30CB05FF30CC054C
:1017B800FF30CD050030CE059630D502D51FE52B7C
:1017C800E62BFE2B5508803A973E0318EC2BED2BA1
:1017D800EE2BBB2B0130CE36CD0CCC0CCB0C890BB1
:1017E800EF2B0130CF004F08D507031DFC2BFD2B35
:1017F800EE2B132C20305502031C032C042C0E2C2A
:10180800BB2B0130CB35CC0DCD0DCE0D890B062C65
:101818000130D5025508031D122C132C052C540831
:101828000319172C182C232CCB09CC09CD09CE0968
:10183800CB0A0319CC0A0319CD0A0319CE0A0800EA
:101848004001AD01AA1F292C2A2C372CA709A80969
:10185800A909AA09A70A0319A80A0319A90A0319B1
:10186800AA0AAD01AD0AA61F3A2C3B2C462CA309A7
:10187800A409A509A609A30A0319A40A0319A50A14
:101888000319A60A260825042404230403194D2C49
:101898004E2C872CAC01AC0A5C2C0130A335A40D6E
:1018A800A50DA60D890B522C0130AB002B08AC07F7
:1018B800A61F5F2C602C512C26082A02031D6E2CB3
:1018C80025082902031D6E2C24082802031D6E2CEE
:1018D80023082702031C712C722C7A2C2308A702D8
:1018E8002408A83B2508A93B2608AA3B0130A636B0
:1018F800A50CA40CA30C890B7B2C0130AC02031D96
:10190800862C872C602C2D0803198B2C8C2C972C5B
:10191800A709A809A909AA09A70A0319A80A03195E
:10192800A90A0319AA0A2A08A6002908A50028084E
:10193800A4002708A30008004001AD01A61FA52C9C
:10194800A62CB32CA309A409A509A609A30A03195F
:10195800A40A0319A50A0319A60AAD01AD0AAA1F0C
:10196800B62CB72CC62CA709A809A909AA09A70A41
:101978000319A80A0319A90A0319AA0A0130AB0016
:101988002B08AD060030B1000030B0000030AF00C9
:101998000030AE0026082504240423040319D52C9E
:1019A800D62C172DAC01AC0AE42C0130A335A40DBC
:1019B800A50DA60D890BDA2C0130AB002B08AC075E
:1019C800A61FE72CE82CD92C0130AE35AF0DB00D91
:1019D800B10D890BE92C26082A02031DFD2C2508C8
:1019E8002902031DFD2C24082802031DFD2C2308B1
:1019F8002702031C002D012D0A2D2308A702240805
:101A0800A83B2508A93B2608AA3B2E140130A63678
:101A1800A50CA40CA30C890B0B2D0130AC02031DE3
:101A2800162D172DE82C2D0803191B2D1C2D272DDD
:101A3800AE09AF09B009B109AE0A0319AF0A031913
:101A4800B00A0319B10A3108A6003008A5002F080A
:101A5800A4002E08A3000800DC30860000308700B0
:101A68005B3084000030850008304001DA00160041
:101A78001A00DA0B3B2D5908B8005808B700570868
:101A8800B6005608B5004230B400C830B300003084
:101A9800B2000030B10083310C238D31400134088D
:101AA800CE003308CD003208CC003108CB008B3192
:101AB800AF238D3140014E08E6004D08E5004C0883
:101AC800E4004B08E3000030A6000030A500003019
:101AD800A4000A30A3006608AA006508A9006408E3
:101AE800A8006308A7008C3124248D314001230805
:101AF800303EDA005A08E1000030A6000030A500A8
:101B08000030A4000A30A3006608AA006508A900EE
:101B18006408A8006308A7008C31A0248D31400117
:101B28002608E6002508E5002408E4002308E30069
:101B38000030A6000030A5000030A4000A30A30041
:101B48006608AA006508A9006408A8006308A70039
:101B58008C3124248D3140012308303EDA005A08A4
:101B6800E0000030A6000030A5000030A4000A30D4
:101B7800A3006608AA006508A9006408A80063080D
:101B8800A7008C31A0248D3140012608E6002508E5
:101B9800E5002408E4002308E3000030A600003034
:101BA800A5000030A4000A30A3006608AA00650852
:101BB800A9006408A8006308A7008C3124248D318B
:101BC80040012308303EDA005A08DE000030A60043
:101BD8000030A5000030A4000A30A3006608AA005F
:101BE8006508A9006408A8006308A7008C31A02430
:101BF8008D3140012608E6002508E5002408E400A8
:101C08002308E3000030A6000030A5000030A4003F
:101C18000A30A3006608AA006508A9006408A8009D
:101C28006308A7008C3124248D3140012308303EFD
:101C3800DA005A08DD000030A6000030A5000030A8
:101C4800A4000A30A3006608AA006508A900640871
:101C5800A8006308A7008C31A0248D314001260814
:101C6800E6002508E5002408E4002308E300003026
:101C7800A6000030A5000030A4000A30A3006608C2
:101C8800AA006508A9006408A8006308A7008C31A9
:101C980024248D3140012308303EDA005A08DC0044
:101CA8000030A6000030A5000030A4000A30A300D0
:101CB8006608AA006508A9006408A8006308A700C8
:101CC8008C31A0248D3140012608E6002508E50066
:101CD8002408E4002308E3000030A6000030A50033
:101CE8000030A4000A30A3006608AA006508A9000D
:101CF8006408A8006308A7008C3124248D314001B2
:101D08002308303EDA005A08DB005B30A7000030B9
:101D1800A800893196218D3108004301AA01AB0141
:101D2800A001A1019731A7278E318B170B17883196
:101D3800A5208E319631E9268E3100304001A7006A
:101D48009030A800893196218E31400119109910E0
:101D58001911991103304101DB008A30DA0055303E
:101D6800890BB42EDA0BB42EDB0BB42E003296316D
:101D7800E9268E3100304001A5009830A600883150
:101D880062208E318731C4278E31013A031DCD2E52
:101D9800CE2EE12E9631E9268E313E304001A70045
:101DA8000130A800893196218E313E304001A500CE
:101DB8000130A600883162208E31A3304101DA005B
:101DC8005530890BE52EDA0BE52E62304101DA0039
:101DD8006530890BED2EDA0BED2E0032013088319B
:101DE80008208E31400124084301AB00400123083C
:101DF8004301AA0040304001B4005330B3003330EF
:101E0800B2003330B10043012A084001A300430166
:101E18002B084001A400A501A6010030873117272F
:101E28008E3140012608B8002508B7002408B600FE
:101E38002308B50083310C238E3140013408430157
:101E4800A500400133084301A400400132084301C2
:101E5800A300400131084301A200C2304001E8005C
:101E68004830E7000030E6000030E5004430CE009E
:101E78007F30CD00C030CC000030CB004230B40001
:101E8800C830B3000030B2000030B100430125086B
:101E98004001B800430124084001B700430123086A
:101EA8004001B600430122084001B50083310C23EC
:101EB8008E3140013408D2003308D1003208D000F6
:101EC8003108CF00853163258E3140014E08EC0082
:101ED8004D08EB004C08EA004B08E90080315C2013
:101EE8008E31400168084301A90040016708430199
:101EF800A800400166084301A700400165084301A6
:101F0800A6009631E9268E31430129084001D900FF
:101F1800430128084001D800430127084001D700A1
:101F2800430126084001D6008D3130258E31DF303F
:101F38009731D9278E3143309731D9278E31623086
:101F48004101DA006530890BA72FDA0BA72F003281
:101F580002304101DB004530DA00A930890BB22F8D
:101F6800DA0BB22FDB0BB22F003240010D1ABD2F56
:101F7800BE2FE52F1715A3304101DA005530890B24
:101F8800C32FDA0BC32F40011711A3304101DA0028
:101F98005530890BCD2FDA0BCD2F40019715A33083
:101FA8004101DA005530890BD72FDA0BD72F4001C2
:101FB8009711A3304101DA005530890BE12FDA0B74
:101FC800E12F40018D1AE92FEA2FC62E0310971D25
:101FD80003140318F02FF32F40019715F52F400134
:101FE8009711A3304101DA005530890BF92FDA0B2C
:101FF800F92FC62E8031282842346F347234793450
:1020080061346E3461342034653420346E34613484
:1020180069342D342034203467346F346C3465349B
:102028006D346934713420347A346C3465347434E2
:0620380061346B3400343A
:102DB800883148209631080042011D121D1608006E
:102DC80001309731EC2796310800013088311C20FA
:102DD80096310800640080010131890BEF2E003420
:102DE800FE0012001E00FE0BF52E00344001A40068
:102DF80024089731522796310800400124084101E0
:102E0800BF00400123084101BE000800400124081A
:102E18004101C300400123084101C20008004001EC
:102E280024084101C100400123084101C0000800F5
:102E3800400124084101C500400123084101C400A4
:102E48000800623051018D008F019101023093001A
:102E580092010800400124084101CD0040012308E7
:102E68004101CC000800400124084101CB00400189
:102E780023084101CA000800400124084101C90093
:102E8800400123084101C80008004001240841010D
:102E9800C700400123084101C60008004001A30003
:102EA8004E010F1E582F592F542F4001230842015D
:102EB8009A00080039343934393439342E343934E5
:102EC80039340034393439343934393439344101F6
:102ED8004C084D040319712F722F772F4D088A0063
:102EE8004C080A0097317E015510080041014A0834
:102EF8004B040319802F812F862F4B088A004A081C
:102F08000A0097317E01D51008004101480849049C
:102F180003198F2F902F952F49088A0048080A0017
:102F280097317E01551108004101460847040319ED
:102F38009E2F9F2FA42F47088A0046080A00973122
:102F48007E01D51108008831002097318B3142234A
:102F5800973197312527973188313120973188313A
:102F6800F820973108003134323433344134343462
:102F780035343634423437343834393443342A34E7
:102F8800303423344434F900400110147908F8002F
:102F98000430F836890BCD2F78088A31752297319D
:102FA80079088A317522973108004001A60010146B
:102FB8002608A5000430A536890BDF2F25088A319D
:102FC800B5229731400126088A31B5229731080089
:102FD800F900400110107908F8000430F836890B20
:102FE800F22F78088A317522973179088A3175224B
:102FF8009731400110140800203477346134693463
:10300800743469346E3467342E342E342E340034DC
:020000040001F9
:0A000E00EC3FFF3F9F3FFF3FFF3F25
:00000001FF
